:100000000C94DC100C940D110C940D110C940D112A
:100010000C940D110C940D110C940D110C940D11E8
:100020000C940D110C940D110C940D110C940D11D8
:100030000C940D110C940D110C940D110C940D11C8
:100040000C940D110C9461AB0C940D110C940D11CA
:100050000C940D110C940D110C940AA30C9442A055
:100060000C940D110C944F610C940D110C940D1106
:100070000C940D110C940D110C940D110C940D1188
:100080000C9474B30C940D110C940D110C940D116F
:100090000C940D110C940D110C940D110C940D1168
:1000A0000C940D110C940D110C9446B30C940D117D
:1000B0000C940D110C940D110C940D110C9418B39B
:1000C0000C940D110C940D110C940D110C94C89AF4
:1000D0000C949E9A0C940D110C940D110C940D110E
:1000E0000C940D11084AD73B3BCE016E84BCBFFD7A
:1000F000C12F3D6C74319ABD56833DDA3D00C77FF8
:1001000011BED9E4BB4C3E916BAAAABE0000008090
:100110003F05A84CCDB2D44EB93836A9020C50B91F
:10012000918688083CA6AAAA2ABE000000803F004B
:100130004E414E494E495459494E46CDCCCC3D0ACC
:10014000D7233C17B7D13877CC2B329595E6241FAF
:10015000B14F0A000020410000C84200401C462068
:10016000BCBE4CCA1B0E5AAEC59D7400407A10F33B
:100170005A00A0724E18090010A5D4E80000E876D5
:1001800048170000E40B54020000CA9A3B0000002C
:10019000E1F505000080969800000040420F000045
:1001A00000A08601000000102700000000E8030006
:1001B0000000006400000000000A000000000001D0
:1001C00000000000002C76D888DC674F0823DFC1D0
:1001D000DFAE59E1B1B796E5E3E453C63AE651998B
:1001E0007696E8E6C28426EB898C9B62ED407C6FB4
:1001F000FCEFBC9C9F40F2BAA56FA5F490055A2A6B
:10020000F75C936B6CF9676DC11BFCE0E40D47FE76
:10021000F520E6B500D0ED902E030094357705006B
:1002200080841E080000204E0A000000C80C3333F2
:1002300033330F986E12831141EF8D2114893BE601
:100240005516CFFEE6DB18D1844B381BF77C1D908A
:100250001DA4BBE424203284725E228100C9F124F3
:10026000ECA1E53D27434F4D4D554E49434154497F
:100270004F4E0044525952554E004552524F525320
:1002800000494E464F004543484F004D3234004D23
:100290003233202573004D3130362053323535004E
:1002A0004D31303920532569004D313930205325E7
:1002B000690047393220452573004730205A25739D
:1002C000004D31303920532569004D3139302053EC
:1002D0002569004D323400473238004D3432302029
:1002E0005330004D343230205331004731204631F5
:1002F0003030205A300047312058353020593330C3
:1003000030204633363030004731204631303020FF
:100310005A330047312046313030205A30004731BF
:100320002058333030205933303020463336303087
:100330000047312046313030205A330047312046C3
:10034000313030205A300047312058333030205976
:10035000353020463336303000473120463130309A
:10036000205A330047312046313030205A30004780
:100370003120583530205935302046333630300062
:1003800047312046313030205A3300473120463142
:100390003030205A30004731205831383020593120
:1003A0003830204633363030004731204631303047
:1003B000205A33004732390047393000473238007D
:1003C000473238205A3000473238004D3834004721
:1003D000312046323030205A302E3000473238003B
:1003E00047393220452573004730205A2573004D88
:1003F00031303920532569004D313930205325697A
:1004000000473238205830205930004732382058C1
:1004100030205930005072696E7465722073746FA9
:10042000707065642064756520746F206572726FEA
:1004300072732E2046697820746865206572726F29
:100440007220616E6420757365204D3939392074CE
:100450006F20726573746172742E202854656D70FC
:100460006572617475726520697320726573657455
:100470002E20536574206974206166746572207241
:10048000657374617274696E67290A004E6F204C3F
:10049000696E65204E756D6265722077697468209B
:1004A000636865636B73756D2C204C617374204CAD
:1004B000696E653A20004E6F20436865636B737503
:1004C0006D2077697468206C696E65206E756D6249
:1004D00065722C204C617374204C696E653A200063
:1004E000636865636B73756D206D69736D617463AB
:1004F000682C204C617374204C696E653A20004C66
:10050000696E65204E756D626572206973206E6F2D
:1005100074204C617374204C696E65204E756D6259
:1005200065722B312C204C617374204C696E653AD6
:1005300020004D313130004D3331004D38342058DA
:100540002059205A2045005344207265616420657B
:1005500072726F720A00446F6E65207072696E74F9
:10056000696E672066696C650A0020496E76616C69
:1005700069642065787472756465722000000000FB
:100580000000000000000000000000B4430000B4C0
:10059000430000CD434730204633363030205831B9
:1005A000383020593138300042696C696E656172AB
:1005B000204C6576656C696E6720477269643A0AFB
:1005C0000020706F736974696F6E206F7574206F8F
:1005D000662072616E67652E0A003F50726F626519
:1005E00020002066697273740A005A00590058008E
:1005F000486F6D65200052756E6E696E6720696E7A
:10060000204452592D52554E206D6F64650A0047A3
:100610003239204175746F20426564204C657665DF
:100620006C696E670A0028422961636B00284629BD
:10063000726F6E74002852296967687400284C290B
:10064000656674003F2856296572626F7365206C79
:100650006576656C20697320696D706C617573696E
:10066000626C652028302D34292E0A0042616420F6
:100670005A2076616C75650A004E6F2062696C695C
:100680006E65617220677269640A0044656C657406
:10069000696F6E206661696C65642C2046696C65C3
:1006A0003A200046696C652064656C657465643A3F
:1006B000006F70656E206661696C65642C20466908
:1006C0006C653A2000202F002042403A0020403A3A
:1006D000004732382058302059300020573A004720
:1006E00032382058302059300020573A00205A3AEA
:1006F0000020593A0020436F756E7420583A00204C
:10070000453A00205A3A0020593A00583A004361CD
:10071000703A454D455247454E43595F50415253FB
:1007200045523A300A004361703A434153455F4CA9
:10073000494748545F4252494748544E4553533AFB
:10074000300A004361703A544F47474C455F4C496B
:10075000474854533A300A004361703A534F465465
:10076000574152455F504F5745523A300A00436156
:10077000703A4C4556454C494E475F444154413AC6
:10078000310A004361703A5A5F50524F42453A3144
:100790000A004361703A4155544F4C4556454C3A16
:1007A000310A004361703A5052494E545F4A4F42F9
:1007B0003A310A004361703A50524F475245535301
:1007C0003A300A004361703A4155544F5245504FF8
:1007D00052545F54454D503A310A004361703A45D6
:1007E0004550524F4D3A310A004649524D574152F9
:1007F000455F4E414D453A4D61726C696E205665BC
:100800007220312E37302E3120424C202843726521
:10081000616C69747933442920534F555243455FC5
:10082000434F44455F55524C3A68747470733A2F85
:100830002F6769746875622E636F6D2F4D61726CDE
:10084000696E4669726D776172652F4D61726C6970
:100850006E2050524F544F434F4C5F5645525349B0
:100860004F4E3A312E30204D414348494E455F545A
:100870005950453A456E6465722D3520506C75733C
:100880002045585452554445525F434F554E543AB3
:100890003120555549443A63656465326132662DAD
:1008A000343161322D343734382D396231322D6391
:1008B00035356336326633363766660A00205A00AD
:1008C000205900580020204D61783A2000205A001D
:1008D000205900580020204D696E3A20004F6E20AC
:1008E000004F666600536F667420656E6473746FA4
:1008F00070733A200020643A0020693A0020703A70
:10090000004B64200023646566696E6520204445C1
:100910004641554C545F004B69200023646566696D
:100920006E65202044454641554C545F004B702075
:100930000023646566696E65202044454641554C38
:10094000545F00504944204175746F74756E652082
:1009500066696E69736865642120507574207468D7
:1009600065206C617374204B702C204B6920616E84
:1009700064204B6420636F6E7374616E74732066C1
:10098000726F6D2062656C6F7720696E746F2043A3
:100990006F6E66696775726174696F6E2E680A00A2
:1009A000504944204175746F74756E6520666169A5
:1009B0006C6564212074696D656F75740A00504917
:1009C00044204175746F74756E65206661696C654D
:1009D00064212054656D7065726174757265207450
:1009E0006F6F20686967680A00204B643A20002016
:1009F0004B693A2000204B703A20000A20436C617A
:100A00007373696320504944200A002054753A20CA
:100A100000204B753A2000206D61783A2000206D4F
:100A2000696E3A200020643A200020626961733ABE
:100A300020004F66660A0046616465204865696764
:100A400068742000426564204C6576656C696E6749
:100A500020004661696C656420746F20656E616278
:100A60006C6520426564204C6576656C696E670A2A
:100A7000004D65736820706F696E742063616E6EDF
:100A80006F74206265207265736F6C7665640A000E
:100A90004D34323120696E636F72726563742070F9
:100AA0006172616D657465722075736167650A00B6
:100AB00047322F47332062616420706172616D6537
:100AC000746572730A005A2070726F6265206F75C8
:100AD000742E206265640A00473238205A20466F1F
:100AE0007262696464656E0A0047323900205A3ABE
:100AF000200020593A200042656420583A20004DD9
:100B000065736820706F696E742063616E6E6F74B8
:100B1000206265207265736F6C7665640A00456EAD
:100B2000642066696C65206C6973740A00426567AD
:100B3000696E2066696C65206C6973740A002E0A00
:100B40000044656C6574696F6E2862696E29206661
:100B500061696C65640046696C652862696E29206C
:100B600064656C65746564005344207072696E74CA
:100B7000696E67206279746520004E6F742053445B
:100B8000207072696E74696E670A002569730025AA
:100B9000696D20256973002569682025696D202508
:100BA000697300256964202569682025696D202501
:100BB00069730025697920256964202569682025E5
:100BC000696D20256973005072696E742074696DB7
:100BD000653A200050726F746563746564205069D3
:100BE0006E0A006F666600860281027A02730265F1
:100BF0000244454255473A004D3131332053006F8E
:100C00006B002F2F200053657474696E6720547237
:100C10006176656C20416363656C65726174696FB0
:100C20006E3A200053657474696E67205265747261
:100C300061637420416363656C65726174696F6E92
:100C40003A200053657474696E67205072696E743F
:100C500020416363656C65726174696F6E3A200050
:100C600053657474696E67205072696E7420616E8A
:100C7000642054726176656C20416363656C6572B3
:100C80006174696F6E3A20000001363726FF033C1D
:100C90003D38FF0E2E303E12FFFF0C0809FFFFFF0C
:100CA0001A1C18FFFF08440AFF43FFFFFFFFFFFF66
:100CB0003A200020536572766F2000206F757420F3
:100CC0006F662072616E67650A00536572766F20E9
:100CD0000020643A0020693A0020703A0043290A53
:100CE0000061626C656420286D696E2074656D70AA
:100CF0002000436F6C64206578747275646573209E
:100D00006172652000546F6F206661722066726F99
:100D10006D207265666572656E636520706F696EC1
:100D2000740A00207A70726F62655F7A6F6666730C
:100D300065743D20007A5F6D696E3A20202D323057
:100D4000207A5F6D61783A20203230005A204F6659
:100D50006673657420004E6F2063617365206C6953
:100D60006768740A00416374697665204578747217
:100D7000756465723A2000556E6B6E6F776E2063F6
:100D80006F6D6D616E643A202200526573656E640A
:100D90003A20006F6B0020746F6F206C6F6E6720BD
:100DA000657874727573696F6E2070726576656EA2
:100DB0007465640A0020636F6C64206578747275D2
:100DC00073696F6E2070726576656E7465640A0073
:100DD000627573793A2070617573656420666F720D
:100DE00020696E7075740A00627573793A207061BB
:100DF0007573656420666F7220757365720A006290
:100E00007573793A2070726F63657373696E670AE0
:100E1000004B494C4C2063617573656420627920F6
:100E20004B494C4C20627574746F6E2F70696E0A5A
:100E3000004B494C4C2063617573656420627920D6
:100E4000746F6F206D75636820696E616374697675
:100E5000652074696D65202D2063757272656E74EE
:100E600020636F6D6D616E643A20000000B4430032
:100E700000B4430000000000004842000048420067
:100E8000008040000000005761726E696E673A2072
:100E9000486F6D696E672042756D70204469766990
:100EA000736F72203C20310A000202040000A0404F
:100EB0000000A040000000400000B4430000B44324
:100EC0000000CD430101FF62696E004D31313720D2
:100ED000494E56414C494420444154412E00473923
:100EE00032205A2573204525730062696E007C3CD0
:100EF0003E5E2B3D3F2F5B5D3B2C2A225C00457202
:100F0000726F722077726974696E6720746F204502
:100F10004550524F4D210A00290A0020627974651C
:100F2000733B20637263200053657474696E67734A
:100F30002053746F726564202800202863616C63FD
:100F4000756C6174656429210A0020213D200045EB
:100F50004550524F4D20435243206D69736D61746B
:100F60006368202D202873746F726564292000291E
:100F70000A002062797465733B206372632000204D
:100F800073746F7265642073657474696E6773201F
:100F9000726574726965766564202800204D6172FF
:100FA0006C696E3D563431290A0028454550524F30
:100FB0004D3D00454550524F4D2076657273696F27
:100FC0006E206D69736D617463682000486172649E
:100FD000636F6465642044656661756C7420536555
:100FE0007474696E6773204C6F616465640A00F401
:100FF000010000F401000064000000E803000000AC
:10100000009643000096430000A0400000C8410045
:1010100000A0420000A042000048440000BA422064
:10102000204D383531205A005A2D50726F6265209C
:101030004F666673657420286D6D293A0A00204456
:101040000020490020204D3330342050002044003F
:1010500020490020204D3330312050005049442099
:1010600073657474696E67733A0A00205A00202011
:101070004D3432302053004175746F204265642036
:101080004C6576656C696E673A0A00205A002059F3
:101090000020204D323036205800486F6D65206F9B
:1010A00066667365743A0A00204500205A0020598C
:1010B0000020580020420020540020204D323035BE
:1010C000205300416476616E6365643A20533C6D41
:1010D000696E5F66656564726174653E20543C6D3F
:1010E000696E5F74726176656C5F66656564726176
:1010F00074653E20423C6D696E5F7365676D656E19
:10110000745F74696D655F6D733E20583C6D6178E6
:101110005F78795F6A65726B3E205A3C6D61785FDB
:101120007A5F6A65726B3E20453C6D61785F655FF2
:101130006A65726B3E0A0020540020520020204D48
:10114000323034205000416363656C6572617469AC
:101150006F6E2028756E6974732F7332293A205090
:101160003C7072696E745F616363656C3E20523CD3
:10117000726574726163745F616363656C3E205471
:101180003C74726176656C5F616363656C3E0A00F6
:10119000204500205A0020590020204D32303120B7
:1011A00058004D6178696D756D20416363656C65AC
:1011B000726174696F6E2028756E6974732F733253
:1011C000293A0A00204500205A0020590020204DCD
:1011D0003230332058004D6178696D756D20666539
:1011E000656472617465732028756E6974732F73FA
:1011F000293A0A00204500205A0020590020204D9D
:1012000039322058005374657073207065722075F0
:101210006E69743A0A0020204D3230302044300A82
:101220000020204D32303020440020446973616238
:101230006C65640A0046696C616D656E7420736547
:101240007474696E67733A0020204D31343920433D
:10125000203B20556E69747320696E2043656C7362
:101260006975730A002020473231202020203B205E
:10127000556E69747320696E206D6D0A007A5F6D1A
:10128000696E3A2000795F6D61783A2000785F6D71
:1012900061783A20005265706F7274696E672065DC
:1012A0006E6473746F70207374617475730A0020B8
:1012B000746F6F206C6F6E672065787472757369D8
:1012C0006F6E2070726576656E7465640A002063C7
:1012D0006F6C6420657874727573696F6E207072BC
:1012E0006576656E7465640A0024F4D43050C38E4C
:1012F00020C2A24017828B7011127A910D816CD995
:101300000AA861E108C7586607615143061E4B5D94
:1013100005C145A7041A411104093D9803713931EB
:10132000034036DB0265339102D4305402802E1D17
:1013300002632CEE01752AC501B028A00110278197
:10134000018F2564012B244B01E0223401AC211FC5
:10135000018D200D01801FFC00841EED00971DDF14
:1013600000B81CD200E61BC600201BBC00641AB2E9
:1013700000B219A8000A19A0006A189900D11791A3
:101380000040178B00B516840031167E00B3157926
:10139000003A157300C7146F0058146A00EE136604
:1013A000008813630025135E00C7125B006C1257A0
:1013B0000015125400C111510070114F0021114B42
:1013C00000D61049008D104700461044000210421C
:1013D00000C00F4000800F3E00420F3C00060F3B54
:1013E00000CB0E3800930E37005C0E3500270E340C
:1013F00000F30D3200C10D3100900D3000600D2E54
:1014000000320D2D00050D2C00D90C2B00AE0C293F
:1014100000850C29005C0C2700350C27000E0C26DB
:1014200000E80B2400C40B2400A00B23007D0B2339
:10143000005A0B2100390B2100180B2000F80A1F5D
:1014400000D90A1E00BB0A1E009D0A1D00800A1D4D
:1014500000630A1C00470A1B002C0A1B00110A1A11
:1014600000F7091A00DD091900C4091900AB0919B0
:1014700000920917007B091800630917004C091630
:101480000036091600200916000A091500F508158E
:1014900000E0081400CC081400B8081400A40814D4
:1014A00000900813007D0812006B08130058081202
:1014B0000046081200340811002308110012081118
:1014C0000001081100F0071000E0071000D007101D
:1014D00000C0071000B0070F00A107100091070E11
:1014E0000083070F0074070F0065070E0057070EF3
:1014F0000049070E003B070D002E070E0020070DC8
:101500000013070D0006070D00F9060C00ED060D8F
:1015100000E0060C00D4060C00C8060C00BC060C4B
:1015200000B0060C00A4060B0099060C008D060BFB
:101530000082060B0077060B006C060B0061060AA2
:101540000057060B004C060A0042060A0038060A3D
:10155000002E060A0024060A001A060A00100609D0
:101560000007060A00FD050900F4050900EB05095E
:1015700000E2050900D9050900D0050900C70509E1
:1015800000BE050900B5050800AD050800A5050960
:10159000009C050800940508008C050800840508D7
:1015A000007C050800740508006C05070065050847
:1015B000005D050700560508004E050700470507B2
:1015C000004005080038050700310507002A050717
:1015D00000230507001C050600160507000F050778
:1015E000000805060002050700FB040600F50407D5
:1015F00000EE040600E8040600E2040700DB04062F
:1016000000D5040600CF040600C9040600C3040682
:1016100000BD040600B7040600B1040500AC0406D2
:1016200000A6040600A00405009B0406009504051E
:1016300000900406008A0405008504050080040665
:10164000007A04050075040500700405006B0405AC
:101650000066040500610405005C040500570405EC
:1016600000520405004D040500480405004304052C
:10167000003E0404003A040500350405003004046B
:10168000002C04050027040400230405001E0404A4
:10169000001A04040016040500110404000D0404DB
:1016A00000090405000404040000040400FC030411
:1016B00000F8030400F4030400F0030400EC030446
:1016C00000E8030400E4030400E0030400DC030476
:1016D00000D8030400D4030400D0030400CC0304A6
:1016E00000C8030300C503030024F404D9201BC46D
:1016F0000C5C0E9804C4095F0265077101F405F9DA
:1017000000FB04B30048048700C103690058035577
:101710000003034500BE023A008402310053022A4E
:10172000002902250004022000E4011C00C8011960
:1017300000AF01170098011400840113007101101B
:10174000006101100051010E0043010D0036010B34
:10175000002B010B0020010B00150109000C0109F1
:101760000003010800FB000800F3000800EB00077D
:1017700000E4000600DE000600D8000600D20006E5
:1017800000CC000500C7000500C2000500BD000434
:1017900000B9000400B5000400B1000400AD00046D
:1017A00000A9000400A5000300A20003009F00049C
:1017B000009B0003009800030095000200930003C3
:1017C00000900003008D0002008B000300880002DF
:1017D000008600020084000300810002007F0002F6
:1017E000007D0002007B000200790002007700010A
:1017F0000076000200740002007200010071000215
:10180000006F0002006D0001006C0002006A000120
:101810000069000200670001006600010065000128
:10182000006400020062000100610001006000012C
:10183000005F0002005D0001005C0001005B000130
:10184000005A000100590001005800010057000132
:101850000056000100550001005400010053000033
:10186000005300010052000100510001005000012E
:10187000004F0001004E0000004E0001004D00012D
:10188000004C0001004B0000004B0001004A000129
:101890000049000100480000004800010047000125
:1018A0000046000000460001004500000045000120
:1018B000004400010043000000430001004200001A
:1018C0000042000100410000004100010040000111
:1018D000003F0000003F0001003E0000003E00010C
:1018E000003D0000003D0001003C0000003C000005
:1018F000003C0001003B0000003B0001003A0000FA
:10190000003A0001003900000039000100380000F1
:1019100000380000003800010037000000370001E7
:1019200000360000003600000036000100350000DF
:1019300000350000003500010034000000340000D4
:1019400000340001003300000033000000330001C8
:1019500000320000003200000032000100310000BF
:1019600000310000003100010030000000300000B4
:1019700000300001002F0000002F0000002F0000A9
:10198000002F0001002E0000002E0000002E00019C
:10199000002D0000002D0000002D0000002D000192
:1019A000002C0000002C0000002C0000002C000186
:1019B000002B0000002B0000002B0000002B00017A
:1019C000002A0000002A0000002A0000002A00016E
:1019D0000029000000290000002900000029000063
:1019E0000029000100280000002800000028000055
:1019F0000028000000280001002700000027000048
:101A0000002700000027000000270001002600003A
:101A1000002600000026000000260000002600012D
:101A20000025000000250000002500000025000022
:101A30000025000000250001002400000024000013
:101A40000024000000240000002400010023000006
:101A500000230000002300000023000000230000FA
:101A600000230000002300010022000000220000EB
:101A700000220000002200000022000000220001DD
:101A800000210000002100000021000000210000D2
:101A900000210000002100000021000100200000C2
:101AA00000200000002000000020000000200000B6
:101AB000002000000020000000200001001F0000A6
:101AC000001F0000001F0000001F0000001F00009A
:101AD000001F0000001F0001001E0000001E00008B
:101AE000001E0000001E0000004D38342058205910
:101AF000205A2045006265640A002C2073797374B3
:101B0000656D2073746F7070656421204865617421
:101B100065725F49443A200048656174696E6720C8
:101B20006661696C65640048656174696E6720660A
:101B300061696C65640048656174696E67206661FF
:101B4000696C65640048656174696E6720666169E7
:101B50006C65640070012C0190012701B001220125
:101B6000C0011D01F00118011002130130020E0125
:101B70006002090190020401C002FF000003FA00A4
:101B80004003F5008003F000D003EB002004E600E2
:101B90007004E100E004DC004005D700C005D2007D
:101BA0004006CD00D006C8008007C3003008BE0044
:101BB000F008B900C009B400B00AAF00B00BAA0029
:101BC000D00CA500000EA000500F9B00C010960086
:101BD0005012910000148C00C0158700B0178200CD
:101BE000B0197D00D01B7800001E730040206E00ED
:101BF00090226900F024640040275F0090295A0079
:101C0000E02B5500102E500020304B0010324600C3
:101C1000E033410090353C00103737007038320017
:101C2000A0392D00B03A2800A03B2300603C1E00E4
:101C3000103D1900903D1400103E0F00703E0A0048
:101C4000C03E0500003F0000403FFBFF803FF6FF25
:101C5000C03FF1FF544845524D414C2052554E4132
:101C600057415900546865726D616C2052756E6100
:101C7000776179004572723A204D494E54454D5076
:101C800020424544004572723A204D494E54454D1C
:101C900050004D494E54454D502074726967676538
:101CA000726564004572723A204D415854454D505A
:101CB00020424544004572723A204D415854454DEA
:101CC00050004D415854454D502074726967676506
:101CD0007265640000002100240027002A002D0006
:101CE0003000330001010000040107010A01000077
:101CF0002200250028002B002E00310034000201B4
:101D00000000050108010B0100002000230026004F
:101D100029002C002F003200000100000301060101
:101D20000901050505050705080808080202020261
:101D30000A0A080804040404010101010101010167
:101D40000303030303030303040707070C0C0C0C32
:101D50000C0C0C0C0202020206060606060606061B
:101D60000B0B0B0B0B0B0B0B0102102020080810A8
:101D700020401020408002010201080402010102FB
:101D800004081020408080402010080402018004D4
:101D9000020180402010080402010804020101022F
:101DA0000408102040800102040810204080000038
:101DB0000A0B02090C0D0E080703040100000000C5
:101DC0000000000000000000000000000000000013
:101DD00000000000000000000000121110000000D0
:101DE00000000000000000000000000000000000F3
:101DF000000000004D343230205331004D34323079
:101E0000205330002020506C616E6E657242756602
:101E100066657242797465733A2000204672656582
:101E2000204D656D6F72793A2000436F6D70696C5B
:101E300065643A204D617920203820323032300AF2
:101E400000207C20417574686F723A20456E64658D
:101E5000722D3520506C75730A00323031392D30B7
:101E6000392D303400204C617374205570646174D6
:101E700065643A200056657220312E37302E3120AD
:101E8000424C0A004D61726C696E0020536F66749B
:101E9000776172652052657365740A00205761741A
:101EA0006368646F672052657365740A002042722C
:101EB0006F776E206F75742052657365740A002009
:101EC00045787465726E616C2052657365740A00A2
:101ED000506F77657255700A0073746172740A00EE
:101EE0006572726F722077726974696E6720746FA1
:101EF0002066696C650A00205A3A0020593A002091
:101F0000583A00656E6473746F7073206869743A30
:101F10002000446F6E6520736176696E6720666984
:101F20006C652E0A004D32390050726F62696E671F
:101F3000206661696C65640A00205A3A20002059C5
:101F40003A200042656420583A20005072696E744D
:101F500065722073746F7070656420647565207499
:101F60006F206572726F72732E20466978207468D4
:101F700065206572726F7220616E642075736520D2
:101F80004D39393920746F20726573746172742E03
:101F9000202854656D70657261747572652069736F
:101FA0002072657365742E205365742069742061F6
:101FB000667465722072657374617274696E6729E4
:101FC0000A0053544F502063616C6C656420626555
:101FD0006361757365206F6620424C546F7563684A
:101FE000206572726F72202D207265737461727435
:101FF0002077697468204D3939390A00577269743D
:10200000696E6720746F2066696C653A20006F7096
:10201000656E206661696C65642C2046696C653A62
:1020200020006F70656E206661696C65642C2046C7
:10203000696C653A200046696C652073656C656360
:102040007465640A002053697A653A200046696C19
:1020500065206F70656E65643A20006F70656E2054
:102060006661696C65642C2046696C653A200020C5
:1020700066696C653A20004E6F7720002220706FF1
:1020800073002220706172656E743A2200535542CB
:10209000524F5554494E452043414C4C2074617277
:1020A0006765743A2200747279696E6720746F20D4
:1020B00063616C6C207375622D67636F6465206665
:1020C000696C6573207769746820746F6F206D6127
:1020D0006E79206C6576656C732E204D4158206CAE
:1020E0006576656C2069733A0043616E6E6F74208B
:1020F0006F70656E2073756264697220002E0A002D
:102100006F70656E206661696C65642C2046696C31
:10211000653A200057726974696E6720746F206693
:10212000696C653A200053442063617264206F6BD0
:102130000A006F70656E526F6F74206661696C651E
:10214000640A00766F6C756D652E696E6974206621
:1021500061696C65640A00534420696E6974206685
:1021600061696C0A004D3234004D32332025730012
:102170006175746F25692E6700656E71756575658B
:10218000696E672022006563686F3A005072696E5D
:102190007465722068616C7465642E206B696C6C68
:1021A00028292063616C6C6564210A004572726F96
:1021B000723A0000F3DD3EDC11241FBECFEFD1E206
:1021C000DEBFCDBF00E00CBF15E0A0E0B2E0E6E06E
:1021D000FEEE01E00BBF02C007900D92A636B107DC
:1021E000D9F72CE1A6E6B5E001C01D92A136B207F1
:1021F000E1F710E1CBEDD0E100E006C02197010945
:10220000802FFE010E9440F6CA3DD10780E00807FA
:10221000A9F70E9432DF0C94F2F60C940000CF92E2
:10222000DF92EF92FF92CF93DF93EC01C0902F07E4
:10223000D0903007E0903107F0903207A701960167
:10224000688179818A819B810E94B8EC87FF04C0F4
:10225000C882D982EA82FB82C0903307D0903407CB
:10226000E0903507F0903607A70196016C817D81DB
:102270008E819F810E94B8EC87FF04C0CC82DD82F2
:10228000EE82FF82C0903707D0903807E090390780
:10229000F0903A07A7019601688579858A859B8524
:1022A0000E94B8EC87FF04C0C886D986EA86FB8600
:1022B000C0901602D0901702E0901802F090190218
:1022C000A7019601688179818A819B810E9466F5C8
:1022D000181624F4C882D982EA82FB82C0901A02BE
:1022E000D0901B02E0901C02F0901D02A701960105
:1022F0006C817D818E819F810E9466F5181624F481
:10230000CC82DD82EE82FF82C0901E02D0901F023E
:10231000E0902002F0902102A7019601688579855E
:102320008A859B850E9466F5181624F4C886D9868E
:10233000EA86FB86DF91CF91FF90EF90DF90CF9000
:102340000895CF92DF92EF92FF92C0908A07D090CB
:102350008B07E0908C07F0908D0780918E07882383
:1023600081F120E030E0A901C701B6010E94B8EC7C
:10237000882339F120E030E040E05FE3C701B60197
:102380000E941DED9B01AC010E941DED2BED3FE075
:1023900049E450E40E941DED9B01AC0160E070E057
:1023A00080E89FE30E941CF46093D0077093D107EC
:1023B0008093D2079093D307FF90EF90DF90CF9058
:1023C000089560E070E080E89FE3EECFCF92DF9267
:1023D000EF92FF926091850770918607072E000C9F
:1023E000880B990B0E94BEEC6B017C012DEB37E34F
:1023F00046E855EB0E9466F587FD0BC02DEB37E3F1
:1024000046E855E3C701B6010E94B8EC18160CF077
:1024100043C0A701960160E070E080E89FE30E945E
:102420001CF4609310077093110780931207909328
:1024300013076091870770918807072E000C880B9F
:10244000990B0E94BEEC6B017C012DEB37E346E853
:1024500055EB0E9466F587FD0AC02DEB37E346E891
:1024600055E3C701B6010E94B8EC1816CCF4A701D9
:10247000960160E070E080E89FE30E941CF46093A6
:102480001407709315078093160790931707FF9012
:10249000EF90DF90CF90089560E070E0CB01C1CF66
:1024A00060E070E0CB01EBCF80E1EDE3FDE0AAE47A
:1024B000B7E001900D928A95E1F7089580E1EAE492
:1024C000F7E0ADE3BDE001900D928A95E1F7089544
:1024D000CF92DF92EF92FF920F931F93CF93DF93F0
:1024E000EC01CC0FDD1FCC0FDD1FFE01E65DF24FCE
:1024F00020E030E0A90160817181828193810E9496
:1025000040F3FE01E55CF84F208131814281538127
:102510000E9440F36B017C01FE01E35BF24FC0823D
:10252000D182E282F382FE01E358FA4F2591359180
:10253000459154918E01015D184F0E9440F3F801BE
:102540006083718382839383FE01E757FA4F25915D
:10255000359145915491CA5EDD4FC701B6010E9485
:1025600040F3688379838A839B83DF91CF911F91A6
:102570000F91FF90EF90DF90CF9008958F929F92F0
:10258000AF92BF92EF92FF920F931F93CF93DF937F
:102590008C014A015B01EC01CC0FDD1FCC0FDD1F6C
:1025A000CE01835C924F7C01C65DD24F2881398178
:1025B0004A815B81CB01B4010E943FF3F701208186
:1025C0003181428153810E9440F3F701608371831E
:1025D0008283938388829982AA82BB82C801DF9119
:1025E000CF911F910F91FF90EF90BF90AF909F9070
:1025F0008F906ECF089590E080E008958FB7F894A3
:102600009091DF062091DE06291769F0E92FF0E0AE
:10261000E25AF94F208130E09F5F9F779093DF0669
:102620008FBFC90108952FEF3FEFFACF0F931F938C
:10263000CF93DF93EC010E94F79D0E811F812885C7
:102640003985011511052105310579F52C852223E0
:1026500039F1EA8521502C8721E02E0F2A873D850C
:10266000231301C01A86F0E03196EE0FFF1FEE0F24
:10267000FF1FEC0FFD1F02851385248535850A8316
:102680001B832C833D83600F711F811D911D6E8301
:102690007F83888799878C819D81892B09F0409A57
:1026A000DF91CF911F910F910895601B710B820BE9
:1026B000930B97FDF5CF40981E821F8218861986CE
:1026C000EFCF80917E0790917F07019759F40E9488
:1026D000B89F70937F0760937E0710927C071092DB
:1026E0007D07089510927F0710927E07F6CFCF9353
:1026F000DF93EC0190E080E00E942BAB6093040735
:1027000070930507809306079093070781E090E098
:102710000E942BAB609308077093090780930A0708
:1027200090930B0782E090E00E942BAB60930C0724
:1027300070930D0780930E0790930F0784E097E046
:102740000E946AC3C436D10561F48CE0E4E0F7E08E
:10275000ADE3BDE001900D928A95E1F7DF91CF9155
:102760000895CC0FDD1FCC0FDD1FFE01E35CF24F9F
:10277000CC5FD84F88819981AA81BB818083918366
:10278000A283B383EBCFCF92DF92EF92FF92CF93EE
:102790006B017C01C0919707C0929307D092940778
:1027A000E0929507F09296072DEB37E346E855EB5C
:1027B0000E9466F587FD0AC02DEB37E346E855E336
:1027C000C701B6010E94B8EC1816D4F4A70196010F
:1027D00060E070E080E89FE30E941CF460938F0744
:1027E000709390078093910790939207CC2361F0A8
:1027F00082E090E0CF91FF90EF90DF90CF9077CF85
:1028000060E070E0CB01EACFCF91FF90EF90DF90D6
:10281000CF9008958F929F92AF92BF92CF92EF92F6
:10282000FF920F931F93CF93DF93CDB7DEB72C9713
:102830000FB6F894DEBF0FBECDBF4B015C01C09058
:1028400055068091520790915307A0915407B0917B
:10285000550740914E0750914F0760915007709176
:10286000510700914A0710914B0720914C07309176
:102870004D0709831A832B833C834D835E836F83CB
:10288000788789879A87AB87BC878091280D8111CB
:102890000AC0AE01475F5F4FBE016B5F7F4FCE0145
:1028A00001960E94E9C38501740126E537E0AE0177
:1028B000475F5F4FBE016B5F7F4FCE0101960E9465
:1028C000C9B62C960FB6F894DEBF0FBECDBFDF9110
:1028D000CF911F910F91FF90EF90CF90BF90AF904D
:1028E0009F908F9008952F923F924F925F926F9298
:1028F0007F928F929F92AF92BF92CF92DF92EF9290
:10290000FF920F931F93CF93DF93CDB7DEB7EC9772
:102910000FB6F894DEBF0FBECDBF69AF7AAF8BAFF5
:102920009CAF5A8F498F3C8F2B8F80903D0D90909C
:102930003E0DA0903F0DB090400D80914D0D9091B7
:102940004E0DA0914F0DB091500D8D8F9E8FAF8F7A
:10295000B8A3A0918107B0918207BEA3ADA3BD012A
:10296000BB0F880B990B0E94BEEC6FA378A789A7B9
:102970009AA78091100790911107A0911207B0912A
:1029800013078BA79CA7ADA7BEA74090410D509001
:10299000420D6090430D7090440D8091510D9091C7
:1029A000520DA091530DB091540D89A39AA3ABA3DE
:1029B000BCA3A0918307B0918407B8ABAFA7BD01BA
:1029C000BB0F880B990B0E94BEEC69AB7AAB8BAB4B
:1029D0009CAB8091140790911507A0911607B091B8
:1029E00017078DAB9EABAFABB8AF80914A07909104
:1029F0004B07A0914C07B0914D07898B9A8BAB8BFD
:102A0000BC8B80914E0790914F07A0915007B091D9
:102A100051078D8B9E8BAF8BB88F2D8D3E8D4F8D3B
:102A200058A1C501B4010E943FF32FA138A549A5C3
:102A30005AA50E943FF32BA53CA54DA55EA50E947B
:102A40001DED0E9484F47B0194E0E916F1041CF072
:102A500093E0E92EF12CF7FE02C0F12CE12C29A124
:102A60003AA14BA15CA1C301B2010E943FF329A985
:102A70003AA94BA95CA90E943FF32DA93EA94FA9F1
:102A800058AD0E941DED0E9484F41B016430710555
:102A90001CF083E0282E312C37FE02C0312C212C73
:102AA0002D8D3E8D4F8D58A169897A898B899C899E
:102AB0000E943FF32FA138A549A55AA50E943FF3D4
:102AC0002BA53CA54DA55EA50E941DED0E9484F49A
:102AD0008B016430710514F003E010E017FF02C0B1
:102AE00010E000E029A13AA14BA15CA16D897E898B
:102AF0008F89988D0E943FF329A93AA94BA95CA917
:102B00000E943FF32DA93EA94FA958AD0E941DED8B
:102B10000E9484F46430710514F063E070E077FF84
:102B200002C070E060E0E016F10611F56215730571
:102B300009F0A4C069AD7AAD8BAD9CAD6BDEEC96AF
:102B40000FB6F894DEBF0FBECDBFDF91CF911F91BE
:102B50000F91FF90EF90DF90CF90BF90AF909F903C
:102B60008F907F906F905F904F903F902F90A6CC6A
:102B70000E151F050CF082C03E2D621573050CF476
:102B800066C1262FE016F10609F082C062157305B2
:102B900089F2822F022E000C990B01E010E002C096
:102BA000000F111F2A95E2F72B8D3C8D2023312336
:102BB000232B09F4BFCF20E1EAE4F7E0DE01119610
:102BC00001900D922A95E1F72091870730918807AF
:102BD000829FB001839F700D929F700D1124AFA54D
:102BE000B8A96A0F7B1F072E000C880B990B0E9457
:102BF000BEEC29A13AA14BA15CA10E9440F36093D5
:102C00004E0770934F078093500790935107A3018D
:102C100092010E943FF36B017C01A30192016D8937
:102C20007E898F89988D0E943FF39B01AC01C7017B
:102C3000B6010E941CF46B017C01A5019401698915
:102C40007A898B899C890E943FF3A70196010E9493
:102C50001DEDA50194010E9440F360934A07709313
:102C60004B0780934C0790934D07009510952B8D43
:102C70003C8D202331233C8F2B8F7EC0302F62155B
:102C800073050CF07ECF222DE016F10609F481CFFA
:102C9000832F032E000C990B01E010E002C0000FFF
:102CA000111F3A95E2F7498D5A8D40235123452B48
:102CB00009F46CCF20E1EAE4F7E0DE01119601901F
:102CC0000D922A95E1F72091850730918607829F22
:102CD000B001839F700D929F700D11242DA13EA114
:102CE000620F731F072E000C880B990B0E94BEEC1D
:102CF0002D8D3E8D4F8D58A10E9440F360934A0761
:102D000070934B0780934C0790934D07A501940156
:102D10000E943FF36B017C01A501940169897A89C6
:102D20008B899C890E943FF39B01AC01C701B601CE
:102D30000E941CF46B017C01A30192016D897E89C4
:102D40008F89988D0E943FF3A70196010E941DED87
:102D5000A30192010E9440F360934E0770934F07C6
:102D6000809350079093510700951095898D9A8D07
:102D7000802391239A8F898F8090450D9090460DE6
:102D8000A090470DB090480DA501940160915207A5
:102D90007091530780915407909155070E943FF31B
:102DA000A70196010E941DEDA50194010E9440F328
:102DB000609352077093530780935407909355077D
:102DC0008090490D90904A0DA0904B0DB0904C0D05
:102DD000A50194016091560770915707809158079B
:102DE000909159070E943FF3A70196010E941DEDA3
:102DF000A50194010E9440F3609356077093570712
:102E000080935807909359072B8D3C8D498D5A8D8F
:102E100069AD7AAD8BAD9CAD66DD89899A89AB8948
:102E2000BC8989839A83AB83BC838D899E89AF8952
:102E3000B88D8D839E83AF83B88780E1FE01319684
:102E4000AAE4B7E001900D928A95E1F76ECD222DAC
:102E50001FCFCF92EF92FF920F931F93CF93DF93E9
:102E6000CDB7DEB72C970FB6F894DEBF0FBECDBF3F
:102E7000C09055068091450D9091460DA091470D4B
:102E8000B091480D4091410D5091420D6091430D1C
:102E90007091440D00913D0D10913E0D20913F0D1C
:102EA0003091400D09831A832B833C834D835E83CD
:102EB0006F83788789879A87AB87BC878091280D35
:102EC00081110AC0AE01475F5F4FBE016B5F7F4F4C
:102ED000CE0101960E94E9C3E0905502F09056029F
:102EE000009157021091580229E43DE0AE01475F7E
:102EF0005F4FBE016B5F7F4FCE0101960E94C9B646
:102F00002C960FB6F894DEBF0FBECDBFDF91CF91E8
:102F10001F910F91FF90EF90CF9008958F929F9205
:102F2000AF92BF92CF92EF92FF920F931F93CF93E6
:102F3000DF93CDB7DEB72C970FB6F894DEBF0FBE88
:102F4000CDBFFC01209197178091961790E00196D4
:102F50008F7099272817190609F450C0C09055069C
:102F6000EE0FFF1FEE0FFF1FEF58FD4F20E030E088
:102F700040E752E460817181828193810E941CF458
:102F80004B015C0180913D0D90913E0DA0913F0D54
:102F9000B091400D89839A83AB83BC838091410DAE
:102FA0009091420DA091430DB091440D8D839E836D
:102FB000AF83B8878091450D9091460DA091470D44
:102FC000B091480D89879A87AB87BC87AE01475F70
:102FD0005F4FBE016B5F7F4FCE0101960E94E9C338
:102FE0008501740129E43DE0AE01475F5F4FBE01FA
:102FF0006B5F7F4FCE0101960E94C9B62C960FB62B
:10300000F894DEBF0FBECDBFDF91CF911F910F911E
:10301000FF90EF90CF90BF90AF909F908F900895CA
:1030200080914E0690914F06009731F04AE050E0B3
:1030300070E060E00C9415EA60E070E0CB01089568
:10304000EFDF97FD0AC0ECDF6F3F71058105910549
:1030500009F02CF4E5DF862F089580E008958FEFC6
:10306000089580914E0690914F06892B39F0E8DF44
:1030700091E0811101C090E0892F089591E0FCCF8B
:103080004F925F926F927F928F929F92AF92BF9278
:10309000CF92DF92EF92FF920F931F93CF93DF9324
:1030A000CDB7DEB768970FB6F894DEBF0FBECDBFC1
:1030B0000E94F79D6B017C018091670590916805E6
:1030C000A0916905B0916A058C159D05AE05BF05F7
:1030D00008F048C180915E02882309F443C18091C1
:1030E0006D0590916E05892B09F0A1C28091CD0DDF
:1030F0009091CE0D2091D20D222309F489C118168A
:1031000019060CF085C18091AF059091B005892B0F
:1031100009F07CC084E096E090933C1B80933B1BBD
:1031200080EA90E890933E1B80933D1B87E080935C
:103130002F1B12E81093321B80EA90E0A0E0B0E071
:103140008093331B9093341BA093351BB093361B95
:103150000E94479680914C0290914D02A0914E02A0
:10316000B0914F020097A105B10509F012C110926C
:103170003C1B10923B1B05E000932F1B1093321B4E
:103180008AE890E1A0E0B0E08093331B9093341B79
:10319000A093351BB093361B0E94479689E090E0C0
:1031A00090933C1B80933B1B00932F1B1093321B6F
:1031B0008CE890E1A0E0B0E08093331B9093341B47
:1031C000A093351BB093361B0E94479660914C022A
:1031D00070914D0280914E0290914F0228E830E1AB
:1031E00040E050E00E94E99660914C0270914D02DF
:1031F00080914E0290914F02982F872F762F66274D
:1032000021EA30E040E050E00E94E9968091AF056D
:103210009091B005853691050CF0DBC090933C1B76
:1032200080933B1B85E080932F1B82E88093321BA9
:1032300080E090E1A0E0B0E08093331B9093341BDA
:10324000A093351BB093361B0E9447966EE170E049
:1032500080E090E00E94689D8091AF059091B0055C
:1032600001969093B0058093AF05893C91050CF4CD
:1032700079C081E090E090936E0580936D05C090D9
:10328000D40DD090D50D10E000E0F12CE12CCE143F
:10329000DF0409F467C067EA72E1C8018257904F02
:1032A0000E9495F698012E5E3F4F892B09F0ABC026
:1032B00081E080935E02C8018A5D914F7C01FC0130
:1032C00001900020E9F78E1B9F0B439697FD019616
:1032D0008C011595079540E050E260E070E0C70171
:1032E00010161106C4F4FE0131966F0184E11192AB
:1032F0008A95E9F7A8016DE473E0C6010E94B3F670
:10330000B701C601800F911F0E949EF640E050E277
:1033100060E070E0C6010E940D988091F61088234D
:1033200009F468C081E09AE590933C1B80933B1BB5
:1033300084E290E090933E1B80933D1B87E0809356
:103340002F1B82E88093321B84E890E0A0E0B0E07D
:103350008093331B9093341BA093351BB093361B83
:103360000E94479668960FB6F894DEBF0FBECDBF99
:10337000DF91CF911F910F91FF90EF90DF90CF9051
:10338000BF90AF909F908F907F906F905F904F9085
:1033900008950196A11DB11DBC01CD01B5E0969522
:1033A000879577956795BA95D1F76150710981092D
:1033B00091092AE830E140E050E00E94E99688E077
:1033C00090E090933C1B80933B1B85E080932F1BE8
:1033D000EDCE8456910990933C1B80933B1B85E076
:1033E00080932F1B82E88093321B81E090E1A0E064
:1033F000B0E022CF81E09AE590933C1B80933B1B89
:103400008CE490E097CFFFEFEF1AFF0A89013FCFDE
:10341000892B09F00CC18091AF059091B005892BE3
:1034200009F07CC084E096E090933C1B80933B1BAA
:1034300080EA90E890933E1B80933D1B87E0809349
:103440002F1B12E81093321B80EA90E0A0E0B0E05E
:103450008093331B9093341BA093351BB093361B82
:103460000E94479680914C0290914D02A0914E028D
:10347000B0914F020097A105B10509F09EC01092CE
:103480003C1B10923B1B05E000932F1B1093321B3B
:103490008AE890E1A0E0B0E08093331B9093341B66
:1034A000A093351BB093361B0E94479689E090E0AD
:1034B00090933C1B80933B1B00932F1B1093321B5C
:1034C0008CE890E1A0E0B0E08093331B9093341B34
:1034D000A093351BB093361B0E94479660914C0217
:1034E00070914D0280914E0290914F0228E830E198
:1034F00040E050E00E94E99660914C0270914D02CC
:1035000080914E0290914F02982F872F762F662739
:1035100021EA30E040E050E00E94E9968091AF055A
:103520009091B005853691050CF067C090933C1BD7
:1035300080933B1B85E080932F1B82E88093321B96
:1035400080E090E1A0E0B0E08093331B9093341BC7
:10355000A093351BB093361B0E9447966EE170E036
:1035600080E090E00E94689D8091AF059091B00549
:1035700001969093B0058093AF05893C91050CF4BA
:10358000F1CE81E090E090936E0580936D0521E08F
:1035900020935E021092C60D20EA3FE03093030DA7
:1035A0002093020D2091F6102223C1F121E03AE58B
:1035B00030933C1B20933B1BBDCE0196A11DB11D3A
:1035C000BC01CD01E5E09695879577956795EA95DD
:1035D000D1F761507109810991092AE830E140E091
:1035E00050E00E94E99688E090E090933C1B809325
:1035F0003B1B85E080932F1B61CF845691099093EC
:103600003C1B80933B1B85E080932F1B82E88093BB
:10361000321B81E090E1A0E0B0E096CF81E09AE536
:1036200090933C1B80933B1B8DE290E083CE809176
:10363000C60D882309F4DAC180915A0790915B077F
:10364000A0915C07B0915D07892B8A2B8B2B09F425
:10365000CDC10E94B89F4B015C0120E13EE040E0FB
:1036600050E00E94E2F22D8B3E8B4F8B588F2B0146
:103670003C0120E130E140E050E06D897E898F8996
:10368000988D0E94E996C301B2012CE330E040E03E
:1036900050E00E94E2F2CA01B90122E130E140E0CB
:1036A00050E00E94E99680913518882309F425C1DD
:1036B0001091031A112309F479C08091CC1A9091CA
:1036C000CD1AA091CE1AB091CF1A0097A105B105DD
:1036D00009F46CC0BC01CD016D597F4F8F4F9F4FD6
:1036E00024E630E040E050E00E94E2F26091D01A1F
:1036F0007091D11A8091D21A9091D31A0E94E2F25D
:1037000080910002909101022817190609F4F5C072
:10371000112309F485C38091CC1A9091CD1AA09100
:10372000CE1AB091CF1A0097A105B10509F478C35C
:10373000BC01CD016D597F4F8F4F9F4F24E630E084
:1037400040E050E00E94E2F26091D01A7091D11AEC
:103750008091D21A9091D31A0E94E2F2222309F4A6
:103760005FC32F5F20936605233310F530E0220FEF
:10377000331F30933C1B20933B1B05E000932F1B12
:1037800012E81093321B8EE090E1A0E0B0E080934D
:10379000331B9093341BA093351BB093361B0E94B0
:1037A000479610923C1B10923B1B27C020E0A8CFED
:1037B00084E690E090933C1B80933B1B05E00093D4
:1037C0002F1B12E81093321B8EE090E1A0E0B0E0D6
:1037D0008093331B9093341BA093351BB093361BFF
:1037E0000E9447968091660590E082539048880F2A
:1037F000991F90933C1B80933B1B00932F1B1093AE
:10380000321B8FE090E1A0E0B0E08093331B9093F7
:10381000341BA093351BB093361B0E9447968091B2
:10382000031A882309F401C38091CC1A9091CD1A10
:10383000A091CE1AB091CF1A0097A105B10509F455
:10384000F4C2BC01CD016D597F4F8F4F9F4F24E6CD
:1038500030E040E050E00E94E2F26091D01A7091B6
:10386000D11A8091D21A9091D31A0E94E2F230E0DC
:1038700030933C1B20933B1B85E080932F1B82E8F9
:103880008093321B86E190E1A0E0B0E08093331B8F
:103890009093341BA093351BB093361B0E94479620
:1038A0008091031A882309F4C2C28091CC1A9091A6
:1038B000CD1AA091CE1AB091CF1A0097A105B105EB
:1038C00009F4B5C2BC01CD016D597F4F8F4F9F4F99
:1038D00024E630E040E050E00E94E2F26091D01A2D
:1038E0007091D11A8091D21A9091D31A0E94E2F26B
:1038F00030E030930102209300022091240D30919A
:10390000250D4091260D5091270D6091C10D7091AC
:10391000C20D8091C30D9091C40D0E94B8EC882314
:1039200091F00E9491CF8091C10D9091C20DA09114
:10393000C30DB091C40D8093240D9093250DA093D9
:10394000260DB093270D80910602882309F44EC0FE
:1039500080913518882309F449C020E030E040E028
:1039600050E46091450D7091460D8091470D909106
:10397000480D0E9466F51816CCF580917E0790914F
:103980007F07845D9E4F092E000CAA0BBB0B881588
:103990009905AA05BB0550F580914B02882321F1BA
:1039A00080913A0D90913B0D9093B2058093B105B3
:1039B00010923B0D10923A0D10923C1B10923B1B43
:1039C00085E080932F1B82E88093321B8AE390E18D
:1039D000A0E0B0E08093331B9093341BA093351B81
:1039E000B093361B0E944796109206026091D5163E
:1039F0007091D6168091D7169091D8160E9484F4B3
:103A000070933C1B60933B1B05E000932F1B12E857
:103A10001093321B86E390E1A0E0B0E08093331B6B
:103A20009093341BA093351BB093361B0E9447968E
:103A30006091160D7091170D8091180D9091190DD0
:103A40000E9484F470933C1B60933B1B00932F1BDC
:103A50001093321B8CE390E1A0E0B0E08093331B25
:103A60009093341BA093351BB093361B0E9447964E
:103A70004091220D5091230D20913A0D30913B0D34
:103A80008091D3169091D4164217530741F4209198
:103A90001A0D30911B0D2817390709F49CC00E949C
:103AA0008CA080913A0D90913B0D8E37910514F0CA
:103AB0008DE790E090933B0D80933A0D0E9491A08A
:103AC0008091D3169091D41690933C1B80933B1B0E
:103AD00005E000932F1B12E81093321B84E390E162
:103AE000A0E0B0E08093331B9093341BA093351B70
:103AF000B093361B0E94479680913A0D90913B0DF2
:103B000090933C1B80933B1B00932F1B1093321B05
:103B10008AE390E1A0E0B0E08093331B9093341BE4
:103B2000A093351BB093361B0E94479680913518A1
:103B3000811141C06091220D7091230D40913A0D89
:103B400050913B0D6417750764F020911A0D309168
:103B50001B0D8091D3169091D416281739070CF0BD
:103B60006BC18091F610882309F463C181E090E075
:103B700090933C1B80933B1B85E080932F1B82E836
:103B80008093321B84E190E1A0E0B0E08093331B8E
:103B90009093341BA093351BB093361B0E9447961D
:103BA0001092030D1092020D8091CA0D811101C077
:103BB00081E08093CA0D80913A0D90913B0D9093D6
:103BC000230D8093220D8091D3169091D41690935B
:103BD0001B0D80931A0D80918E05811105C0809177
:103BE0009005882309F4DAC00091D3161091D416F9
:103BF0000115110509F120E030E048EC52E4609134
:103C0000D5167091D6168091D7169091D8160E942D
:103C10001DED4B015C01B801110F880B990B0E943F
:103C2000BEEC9B01AC01C501B4010E941CF40E94D2
:103C300089F46536710510F064E670E070933C1B02
:103C400060933B1B05E000932F1B12E81093321B7F
:103C500084E290E1A0E0B0E08093331B9093341BAA
:103C6000A093351BB093361B0E9447966091D316E4
:103C70007091D416072E000C880B990B0E94BEEC95
:103C80009B01AC016091D5167091D6168091D71624
:103C90009091D8160E9466F587FD5CC180918E05D3
:103CA000882309F404C110928F0510928E0520E03C
:103CB00030E040E251E46091850570918605809185
:103CC0008705909188050E941DED0E9484F47093F1
:103CD0003C1B60933B1B00932F1B1093321B84E50E
:103CE00090E1A0E0B0E08093331B9093341BA0934D
:103CF000351BB093361B0E94479620E030E040E22F
:103D000051E46091890570918A0580918B059091AD
:103D10008C050E941DED0E9484F470933C1B6093FF
:103D20003B1B00932F1B1093321B88E590E1A0E012
:103D3000B0E08093331B9093341BA093351BB0935A
:103D4000361B0E9447968091F610882309F4A6C07E
:103D500081E09AE590933C1B80933B1B87E190E0C8
:103D600090933E1B80933D1B87E080932F1B109305
:103D7000321B84E890E0A0E0B0E08093331B909386
:103D8000341BA093351BB093361B0E94479683E0EB
:103D900090E0C4D880918405809355068091C70D2A
:103DA000882329F180918D0591E0980F90938D05DE
:103DB00090E090933C1B80933B1B85E080932F1BEE
:103DC00082E88093321B82E490E1A0E0B0E080932F
:103DD000331B9093341BA093351BB093361B0E946A
:103DE000479680918D058A3010F010928D05609174
:103DF000020D7091030D072E000C880B990B605378
:103E0000784F8F4F9F4FC60ED71EE81EF91EC092E7
:103E10006705D0926805E0926905F0926A05A2CA2A
:103E200010923C1B10923B1BA8CC20E020CD20E040
:103E30005FCD8DE090E09CCE4617570724F08217A7
:103E400093070CF0B8CE8091F610882321F188E01A
:103E500090E090933C1B80933B1B85E080932F1B4D
:103E600082E88093321B84E190E1A0E0B0E080938F
:103E7000331B9093341BA093351BB093361B0E94C9
:103E800047961092030D1092020D8091CA0D811178
:103E900090CE82E08ECE84E190E0DBCF81E09AE5A7
:103EA00090933C1B80933B1B81E490E059CF809121
:103EB0009005882309F44EC0109290051092B00529
:103EC0001092AF0581E08093C60D84E090E090935E
:103ED0003C1B80933B1B00932F1B1093321B8EE8DF
:103EE00090E1A0E0B0E08093331B9093341BA0934B
:103EF000351BB093361B0E9447968091F61088239D
:103F000001F181E09AE590933C1B80933B1B88E094
:103F100090E090933E1B80933D1B87E080932F1B86
:103F20001093321B84E890E0A0E0B0E08093331B54
:103F30009093341BA093351BB093361B0E94479679
:103F40002DCF81E09AE590933C1B80933B1B83E54A
:103F500090E0DFCF80919005882309F41FCF8091F6
:103F6000AF059091B0059C012F5F3F4F3093B00596
:103F70002093AF0565E070E00E942DF690933C1B06
:103F800080933B1B85E080932F1B82E88093321B3C
:103F90008EE890E1A0E0B0E0C9CFAF92BF92CF929F
:103FA000DF92EF92FF920F931F93CF93DF931F92B5
:103FB000CDB7DEB76C018B0159018091800781116B
:103FC0001BC07B01E40EF51EF601808191810E94E9
:103FD000BDF28983F80181938F01BE016F5F7F4F2E
:103FE000C5010E945C98F6018081918101969183C0
:103FF0008083E016F10641F70F90DF91CF911F917A
:104000000F91FF90EF90DF90CF90BF90AF90089509
:104010000E94ABB50E94BDC40E94A11190E080E057
:104020000E94681281E090E00E94681282E090E0B5
:104030000E94681260919307709194078091950790
:10404000909196070E94C3130E9472980C94E611F7
:10405000FC0120E03EE2DB014D91BD01403249F020
:10406000283011F430833196DB0111974C91408355
:1040700031962F5F2B3079F71082089561E0FC01B3
:1040800080810C94FE9A8EBD0DB407FEFDCF08957D
:104090008FEF8EBD0DB407FEFDCF8EB508958F92C4
:1040A0009F92AF92BF92EF92FF920F931F93CF9385
:1040B0007C01C62F49015A01FC019281892F806A37
:1040C00086958CBD90FD03C081E0963009F480E0B8
:1040D0008DBD60E0F70180810E94FE9A8CE291E044
:1040E0000E94649E8C2F8064CEDF08E110E0D50131
:1040F000C401002E04C0B695A795979587950A949C
:10410000D2F7C1DF08501109083FFFEF1F0779F709
:1041100085E9CC2321F087E8C83009F08FEFB3DFC1
:10412000CC3009F4B5DFC0E0B3DFF701838387FF4C
:1041300004C0CF3F11F0CF5FF7CFCF911F910F9108
:10414000FF90EF90BF90AF909F908F9008950F9346
:104150001F93CF93DF93EC0189018C81833039F079
:1041600089E0440F551F661F771F8A95D1F79A0182
:10417000AB0168E1CE0193DF882319F086E08983E3
:1041800035C08EEF8EBDF801C8019E5F0DB407FEED
:10419000FDCF20812EBD0DB407FEFDCF21812EBDA8
:1041A0003296E817F90791F70DB407FEFDCF8FEFB0
:1041B0006ADF8FEF68DF6CDF8B838F71853091F45E
:1041C00088E592E00E94649E182F87E11123B9F2DE
:1041D00020E030E0A9016DE0CE0161DF882351F0DD
:1041E00086E1CDCF83E18983CE0148DFCE0146DF72
:1041F00010E005C04DDF8111F3CFCE013FDF812FED
:10420000DF91CF911F910F910895CF9380914C151D
:10421000C1E0882399F04091441550914515609173
:1042200046157091471524E433E180914D15909126
:104230004E158DDFC82F811104C0C0E08C2FCF91A7
:104240000895409148155091491560914A15709113
:104250004B15411551056105710589F024E433E1E1
:1042600080914D1590914E1572DF882331F3109295
:1042700048151092491510924A1510924B1510923C
:104280004C15DCCFEF92FF920F931F93CF93DF93E8
:10429000EC0179018C81833039F089E0440F551F9E
:1042A000661F771F8A95D1F79A01AB0161E1CE01B4
:1042B000F6DE882331F084E08983CE01DFDE80E002
:1042C00034C00E94F79D8B01E3DE8B838F3F71F436
:1042D0000E94F79D601B710B6D327140A8F381E164
:1042E0008983CE01CBDE8FEFCEDEE9CF8E3F11F09A
:1042F0008FE0F6CF8FEF8EBDF701D701A150BE4FF3
:104300000DB407FEFDCF9EB591938EBDAE17BF07CE
:10431000B9F70DB407FEFDCF8EB58C93B9DEB8DECC
:10432000CE01ACDE8FEFAFDE81E0DF91CF911F9148
:104330000F91FF90EF900895CF92DF92EF92FF924E
:10434000CF936B017C01C42F80914415909145154A
:10435000A0914615B09147158C159D05AE05BF057A
:10436000F1F053DF811108C0C0E08C2FCF91FF9096
:10437000EF90DF90CF90089524E433E1B701A601D8
:1043800080914D1590914E157DDF882369F3C09281
:104390004415D0924515E0924615F0924715CC236E
:1043A00021F081E080934C15E0CFC1E0DECF4F9249
:1043B0005F926F927F928F929F92AF92BF92CF92B5
:1043C000DF92EF92FF920F931F93CF93DF93EC0155
:1043D000423051056105710590F480E0DF91CF9185
:1043E0001F910F91FF90EF90DF90CF90BF90AF9013
:1043F0009F908F907F906F905F904F9008958985E8
:104400009A85AB85BC850196A11DB11D84179507C2
:10441000A607B70710F38F898031C1F5852E962E38
:10442000A72EBB248B899C89AD89BE89880E991ED5
:10443000AA1EBB1E280139016A017B0141E0C501AA
:10444000B4017ADF882349F29F89903181F5DD2418
:10445000EE24FF24F601EE0FFF1FEC5BFC4E1183F0
:1044600000839A89923008F4B9CF4D815E816F81C3
:104470007885840E951EA61EB71E809248159092D0
:104480004915A0924A15B0924B15A8CF803209F079
:10449000A4CF8B899C89AD89BE894A015B01E7E085
:1044A000B694A79497948794EA95D1F7BFCFE894F0
:1044B000C7F8DD24EE24FF24F601EE0FFF1FEE0FF8
:1044C000FF1FEC5BFC4E4082518262827382C9CF37
:1044D000CF92DF92EF92FF920F931F93CF93DF93D0
:1044E000FC0181859285A385B4850196A11DB11D2E
:1044F00084179507A607B70750F480E0DF91CF91A6
:104500001F910F91FF90EF90DF90CF9008958789D2
:104510008031A9F5BB27A72F962F852FC388D48874
:10452000E588F6888C0D9D1DAE1DBF1DE9016A0151
:104530007B018F01409144155091451560914615BE
:104540007091471584179507A607B70749F5F80135
:104550008789803161F5B701A6015527662777273E
:10456000440F551F4C5B5C4EFA0180819181B0E095
:10457000A0E088839983AA83BB8381E0BFCF803288
:1045800009F0BBCFC388D488E588F688DB01CA016F
:10459000C7E0B695A79597958795CA95D1F7C2CFED
:1045A00040E0BC01CD01C8DE8111D1CFA6CFB7015B
:1045B000A6014F77552766277727440F551F440FCD
:1045C000551F4C5B5C4EFA0180819181A281B381C1
:1045D000BF70CFCF4F925F926F927F92AF92BF9298
:1045E000CF92DF92EF92FF920F931F93CF93DF93BF
:1045F00000D01F92CDB7DEB78C0149835A836B83FD
:104600007C835901C12CD12C7601412C82E0582E9B
:10461000612C712C49815A816B817C819E012F5FB5
:104620003F4FC80155DF882319F1F8018585A301A3
:10463000920104C0220F331F441F551F8A95D2F7E1
:10464000DA01C901C80ED91EEA1EFB1E49815A8132
:104650006B817C8187898031F1F481E0483F5F4F35
:1046600061057105B8F2F501C082D182E282F38260
:104670000F900F900F900F90DF91CF911F910F919E
:10468000FF90EF90DF90CF90BF90AF907F906F90B2
:104690005F904F90089581E0483F5F4F6F4F7F409C
:1046A00008F4B8CFE0CF0F931F93CF93DF93FC01B3
:1046B0002381222331F080E0DF91CF911F910F9170
:1046C00008958B01EC01FB018789803139F582E087
:1046D0008B831D8A1E8A1F8A188E808D918DB0E073
:1046E000A0E025E0880F991FAA1FBB1F2A95D1F7CC
:1046F000898B9A8BAB8BBC8B1A8F098F81E0898356
:104700001C821D821E821F82188619861A861B86AD
:104710001C861D861E861F86188ACECF803259F6CB
:1047200083E08B83428D538D648D758D4D8B5E8BB5
:104730006F8B788F9E012F5E3F4FC8014BDF811139
:10474000DBCFB9CF8F929F92AF92BF92CF92DF9281
:10475000EF92FF920F931F93CF93DF93EC018B8126
:1047600081110EC080E0DF91CF911F910F91FF90DA
:10477000EF90DF90CF90BF90AF909F908F90089573
:1047800009891A892B893C890417150726073707D9
:1047900048F34A015B01823031F488869986AA8603
:1047A000BB8681E0E0CF81149104A104B10449F4F7
:1047B0001C821D821E821F82188619861A861B86FD
:1047C000F0CF088519852A853B85E98DFA8D858589
:1047D00090E00996B901A801415051096109710998
:1047E000082E04C076956795579547950A94D2F799
:1047F00075016401E1E0CE1AD108E108F10804C0B6
:10480000F694E794D794C7948A95D2F7C416D50640
:10481000E606F70620F0012B022B032B09F58D8904
:104820009E89AF89B88D8C839D83AE83BF838E01B3
:104830000C5F1F4FC114D104E104F10409F4ADCFA2
:104840004C815D816E817F819801898D9A8D40DEDA
:1048500091E0C91AD108E108F1088111EBCF82CFAC
:10486000C41AD50AE60AF70AE2CF40E050E0BA01DE
:1048700069CF3F924F925F926F927F928F929F92F9
:10488000AF92BF92CF92DF92EF92FF920F931F935E
:10489000CF93DF93CDB7DEB72C970FB6F894DEBF7A
:1048A0000FBECDBF5C01DC0159968D909C90F40148
:1048B00081859285A385B4859C01AD012F5F3F4F13
:1048C0004F4F5F4F29873A874B875C87D5011496F6
:1048D0004D905D906D907C90179741145104610448
:1048E000710409F458C0BFEF4B1A5B0A6B0A7B0ACC
:1048F000312C730162011D821E821F821886F40111
:1049000081859285A385B4852D813E814F8158850F
:10491000281739074A075B0708F054C089859A852C
:10492000AB85BC858C159D05AE05BF0550F482E0B6
:10493000C82ED12CE12CF12C92E0492E512C612C67
:10494000712C9E012F5F3F4FB701A601C401C0DD4E
:104950008823C1F189819A81AB81BC81892B8A2B03
:104960008B2B01F1260137019FEF491A590A690A79
:10497000790A2D813E814F8158852F5F3F4F4F4FE0
:104980005F4F2D833E834F8358873FEFC31AD30A6F
:10499000E30AF30AB4CF40805180628073803324ED
:1049A0003394A7CFC414D504E604F70411F70FEF2E
:1049B0001FEF2FEF3FE0B701A601C401F8DC782E0E
:1049C00081111AC0712C872D2C960FB6F894DEBF7A
:1049D0000FBECDBFDF91CF911F910F91FF90EF9050
:1049E000DF90CF90BF90AF909F908F907F906F900F
:1049F0005F904F903F900895F50144815581668105
:104A00007781411551056105710531F097018601E6
:104A1000C401CDDC8823B1F2D5011496CD92DD928C
:104A2000ED92FC921797332051F0D701C601019601
:104A3000A11DB11DF40180839183A283B383F5018D
:104A400085899689A789B08D892B8A2B8B2B09F0B4
:104A5000BACFC58AD68AE78AF08E81818068818341
:104A6000B2CFCF93DF93EC01462F41706C857D85EB
:104A70008E859F8561DC882351F0888920E2829FA2
:104A8000C00111248C5B9C4EDF91CF91089590E082
:104A900080E0FACFCF93DF93EC018B81882339F14B
:104AA000898187FF21C061E0CE01DBDFFC01892B1A
:104AB000F1F08081853ED9F08B81823040F4898984
:104AC0009A89AB89BC89848F958FA68FB78F8D8982
:104AD0009E89938F828F8D899E89AF89B88DB58B82
:104AE000A48B89818F778983DF91CF918ECB81E0F1
:104AF000888380E0DF91CF9108952F923F924F926B
:104B00005F926F927F928F929F92AF92BF92CF925D
:104B1000DF92EF92FF920F931F93CF93DF9300D01A
:104B20001F92CDB7DEB78C014B011A01DC01139641
:104B30008C911397813009F0C7C011968C9181FF39
:104B4000C3C082FDAEC06101D80118964D915D9140
:104B50006D917C911B97C114D10409F414C159962D
:104B60008D919C915A97FC0174802FEF270D2A019B
:104B70003B0139E076946794579447943A95D1F77E
:104B8000722E74207A01F1E0FF2271101FC0E1142F
:104B9000F104E1F414964D915D916D917C9117971C
:104BA000411551056105710509F094C055968D9127
:104BB0009D910D90BC91A02D0097A105B10509F024
:104BC000A1C0C80156DE882309F47EC080E092E0CF
:104BD0008E199F0956018C159D0508F45C01D801BA
:104BE00059964D915C915A9714968D919D910D9087
:104BF000BC91A02D0297A109B109FA01258504C035
:104C0000880F991FAA1FBB1F2A95D2F74685578583
:104C100060897189840F951FA61FB71F9C01AD0184
:104C2000270D311D411D511D29013A01A11432E00A
:104C3000B30609F075C08091441590914515A09177
:104C40004615B0914715481659066A067B0669F461
:104C500010924C158FEF9FEFDC01809344159093D9
:104C60004515A0934615B09347159401B301A201D1
:104C700080914D1590914E156ADA882329F1F8013B
:104C800080859185A285B3858A0D9B1DA11DB11DCF
:104C900080879187A287B3878A0C9B1CCA18DB0880
:104CA00053CFF80141895289638974898085918540
:104CB000A285B385481759076A077B0709F443CFD4
:104CC000C80140DD81113FCF81E0D8018C938FEF87
:104CD0009FEF6FC09E012F5F3F4FFADB8823A1F348
:104CE00089819A81AB81BC81F801218D328DF901D6
:104CF0002789203169F4883FFFEF9F07A105B1059F
:104D000008F05FCFF80184839583A683B7835ECFD5
:104D1000883F2FEF9207A2072FE0B20798F351CFF9
:104D2000E114F10449F5D80118964D915D916D910A
:104D30007C911B9751968D919D910D90BC91A02DCA
:104D4000481759076A077B07B8F05FDA882309F428
:104D5000BBCF81E080934C1540924415509245158D
:104D60006092461570924715A501B401C7018C5B8E
:104D70009C4E0E9463F683CF41E0C301B201DCDAAE
:104D80008111F2CFA1CFF80181899289A389B489D9
:104D900084179507A607B70738F48181418B528B9A
:104DA000638B748B80688183F801818183FD18C0D7
:104DB000C1010F900F900F900F90DF91CF911F9135
:104DC0000F91FF90EF90DF90CF90BF90AF909F90AA
:104DD0008F907F906F905F904F903F902F900895AD
:104DE000C80158DE8111E4CF6FCFCF93DF931F92BC
:104DF000CDB7DEB7698341E050E0BE016F5F7F4F02
:104E000004967BDE0F90DF91CF910895CF93DF93CF
:104E1000EC0140DE1B82DF91CF910895FC012381DC
:104E20002111F4CF0895CF93DF93EB01FC0123818F
:104E3000211104C080E0DF91CF91089522502230EB
:104E400028F48FE28883198281E0F5CF60E009DEE3
:104E5000009781F3DC0160E080E09EE22D9120323A
:104E600099F0883031F49E01260F311DF9019083AD
:104E70006F5F9E01260F311DAD0141505109FA01AE
:104E80004081F90140836F5F8F5F8B3039F7FE01FE
:104E9000E60FF11D1082D8CF2F923F924F925F9272
:104EA0006F927F928F929F92AF92BF92CF92DF923A
:104EB000EF92FF920F931F93CF93DF9300D01F9237
:104EC000CDB7DEB79C838B834B017A01DC0113964F
:104ED0008C91811119C08FEF9FEF0F900F900F9061
:104EE0000F90DF91CF911F910F91FF90EF90DF9086
:104EF000CF90BF90AF909F908F907F906F905F907A
:104F00004F903F902F900895EB81FC81818180FF2D
:104F1000E2CF0189128923893489408551856285D0
:104F20007385C701B0E0A0E028013901441A550A91
:104F3000660A770A481659066A067B0618F478014D
:104F4000E41AF50A67018B819C8104969A83898310
:104F5000612C32E0732EC114D10409F4B4C0AB81CA
:104F6000BC8118964D915D916D917C911B975A0172
:104F7000B1E0BB22EB81FC81818D928D1A012B0166
:104F800029E056944794379427942A95D1F72381A2
:104F9000223089F5DC015A966D917D918D919C911D
:104FA0005D97620D731D841D951D83010A191B09F0
:104FB000C016D10608F486010115B2E01B0771F492
:104FC0002091441530914515409146155091471553
:104FD000621773078407950709F057C040E0ACD902
:104FE000882309F478CFB5016C5B7C4EA801C4011D
:104FF0000E9463F655C0FC01148111501221A114C6
:10500000B10481F411110EC0452B462B472B79F5C5
:10501000EB81FC8185899689A789B08D84839583EE
:10502000A683B783AB81BC815996ED91FC915A97C9
:1050300014966D917D918D919C9117976250710995
:1050400081099109258504C0660F771F881F991F64
:105050002A95D2F72685378540895189620F731FBB
:10506000841F951F610F711D811D911D9ECFAB8106
:10507000BC8114964D915D916D917C91179729811A
:105080003A8126DA8111CECF26CF9401AB01BC0143
:1050900080914D1590914E15F5D8882309F41BCFBA
:1050A000800E911EEB81FC8180859185A285B38560
:1050B000800F911FA11DB11D80879187A287B387A3
:1050C000C01AD10A48CFC70108CFDF92EF92FF92F2
:1050D0000F931F93CF93DF938C01EB017A018DE047
:1050E000D82E40E250E0BE01C801D6DE80329105E4
:1050F00071F021E0892B09F420E0822F8195DF9166
:10510000CF911F910F91FF90EF90DF90089528812C
:105110002223C1F1253E29F32E3219F3E114F104C3
:1051200039F13B853F733F3019F54A8D5B8D452B37
:10513000F9F42F713FEF320F3230D0F42150330B9E
:10514000D29EC001D39E900D1124D701A80FB91F84
:10515000FE0120E0AD01253078F431813D932F5FD1
:1051600032962D30C1F7288126FF02C0FA0115863C
:105170002B8523FDB6CFC3CF2B3010F43481EECF77
:105180003681ECCF80E0BBCF4F925F926F927F92DF
:10519000AF92BF92CF92DF92EF92FF920F931F9345
:1051A000CF93DF931F92CDB7DEB78C017B015A01FD
:1051B000C22EDB0159968D919C91F801928F818FBF
:1051C000CB0153DB712CF70180859185A285B385D6
:1051D000418952896389748984179507A607B7079F
:1051E00008F051C055E0B695A795979587955A95C3
:1051F000D1F7F82FFF70DF2ED70113968C918230F4
:1052000010F480E0D9C041E050E0BE016F5F7F4FF5
:10521000C70142DE0197A9F7F70180859185A28534
:10522000B3854F96A11DB11D80879187A287B38753
:10523000F0E2DF9EB00111246C5B7C4E61157105BC
:1052400001F3DB018C91882341F0853E09F04BC0CE
:10525000772029F077247394B6CF71100EC0809117
:10526000441590914515A0914615B0914715F80148
:1052700084879587A687B787D08ADB018C918111B7
:10528000E9CF772473948C2D8274823409F0B9CFDE
:10529000772009F4A1C0F801D08861E0C801E1DB02
:1052A000009709F4AECF20E2DC011D922A95E9F7C0
:1052B0002BE0F501DC0101900D922A95E1F721E246
:1052C00038E2FC01318B208B40E058E0578746875D
:1052D000338B228B318F208F578B468B0E94052179
:1052E000811109C08ECF4BE050E0C5010E9456F6F7
:1052F000892B09F068CFF0E2DF9ED00111249D01D7
:105300002C5B3C4EF9018385817121F08C2D8271DB
:1053100009F0FAC0F801818D928D409144155091A9
:1053200045156091461570914715448755876687E6
:105330007787D08AFD01EC5BFC4E44885588712C40
:10534000612C320155244424D80155964D925D922A
:105350006D927C925897428D538D70E060E04429A5
:1053600055296629772955964D935D936D937C93C6
:105370005897D9011B962C91287109F0B8C0848DDB
:10538000958DA68DB78DF801818B928BA38BB48BF5
:1053900081E083838C2D8F70F801818314821582C4
:1053A00016821782108611861286138681E0C4FE4B
:1053B00003C0C8010E940C970F90DF91CF911F91FD
:1053C0000F91FF90EF90DF90CF90BF90AF907F90C4
:1053D0006F905F904F900895D70113968C9113971B
:1053E000823009F40ECF51968D919D910D90BC9114
:1053F000A02D803E9F4FAF41B10508F002CFC701FD
:1054000038DA882309F4FDCE0E940521882309F4A7
:10541000F8CED7015996ED91FC915A9714964D907C
:105420005D906D907C901797B2E04B1A510861081F
:105430007108858504C0440C551C661C771C8A9530
:10544000D2F786859785A089B189480E591E6A1EB4
:105450007B1E81E080934C15409244155092451577
:105460006092461570924715E4E4F3E180E092E023
:10547000DF019C011D9221503040E1F7DD24D394DF
:10548000D7015996ED91FC918481D81698F424E4C3
:1054900033E1B301A2014D0D511D611D711D8091BC
:1054A0004D1590914E150E94A720882309F4A9CE8E
:1054B000D394E6CF258580E092E0A0E0B0E004C080
:1054C000880F991FAA1FBB1F2A95D2F7F7014189A0
:1054D000528963897489840F951FA61FB71F818B1A
:1054E000928BA38BB48B84E493E1D12CDCCE20315E
:1054F00059F498012F5E3F4F6DD8882329F084E03E
:10550000D80113968C9346CFD80113961C9279CE6E
:105510002F923F924F925F926F927F928F929F92C3
:10552000AF92BF92CF92DF92EF92FF920F931F93B1
:10553000CF93DF93CDB7DEB7C254D1090FB6F8943D
:10554000DEBF0FBECDBF4C015B016A01322E198256
:105550001C821C8E1F8E672B11F510E0CE014C961D
:105560005DDCCE0101965ADC812FCE5BDF4F0FB69A
:10557000F894DEBF0FBECDBFDF91CF911F910F9189
:10558000FF90EF90DF90CF90BF90AF909F908F9063
:105590007F906F905F904F903F902F900895FC0107
:1055A00083818111DACFFA0180818F32B9F4CA0187
:1055B0006C010196F60120812F32D1F3F501838130
:1055C0008250823058F0618D728DCE014C966BD82E
:1055D0008E01045E1F4F811102C0BFCF8501CE0135
:1055E00001967C013C012E019CE1490E511C239641
:1055F000EFAE23972F2CFE01F796CF010B96AF014C
:1056000020E22193E817F907D9F7960190E067E0C7
:10561000D9018D91882351F18F3241F1282F8E329B
:1056200039F46A3009F499CF98E06AE09D01F0CF2F
:10563000EEEEFEE03491332321F031968313FACF5E
:105640008CCF691708F489CF813208F486CF8F3761
:1056500009F483CF3FE9380F3A3110F420EE280FD8
:10566000FA01E90FF11D20839F5FE0CF8FA98032FF
:1056700009F473CF6901F90180812F5F3F4F8F32A9
:10568000C9F38823C9F021E0B801C7017DDD882373
:1056900009F463CF0A151B0511F0C801B7DB942D7F
:1056A000852D6E147F0421F023969FAD2397822DC4
:1056B0008701E92EF82E9FCF232DB801C40164DDA8
:1056C000182F4CCF1F93CF93DF93CDB7DEB76B97D7
:1056D0000FB6F894DEBF0FBECDBFAB0119821C829E
:1056E00022E0BC01CE01019613DF81110FC010E052
:1056F000CE01019693DB812F6B960FB6F894DEBF37
:105700000FBECDBFDF91CF911F910895CE010196BD
:105710000E940C97882359F361E0CE010196A1D92C
:10572000009729F325EEFC0120831C820E940521AD
:10573000182FDECF25E433E0FC013183208304966B
:105740006DCB5F9AE3E1FDE010828A9A11829FB7E8
:10575000F894A8E0B1E08C9181608C939FBF128295
:10576000129A08954F925F926F927F928F929F92BA
:10577000AF92BF92CF92DF92EF92FF920F931F935F
:10578000CF93DF93EC0120914D0D30914E0D409160
:105790004F0D5091500D688179818A819B810E94C3
:1057A0003FF36B017C016091810770918207072EA6
:1057B000000C880B990B0E94BEEC9B01AC01C70149
:1057C000B6010E943FF36B017C012091510D309195
:1057D000520D4091530D5091540D6C817D818E81FD
:1057E0009F810E943FF34B015C01609183077091A0
:1057F0008407072E000C880B990B0E94BEEC9B01BE
:10580000AC01C501B4010E943FF34B015C01A7014B
:10581000960160910D0270910E0280910F0290919D
:1058200010020E94B8EC882309F44AC0C0920D020D
:10583000D0920E02E0920F02F09210022091100717
:10584000309111074091120750911307C701B6011B
:105850000E941DED2B013C010E94B5F46B017C01FF
:1058600020E030E0A9010E94B8EC87FD6AC020E08A
:1058700030E040E450E4C701B6010E9466F5181616
:105880002CF4C12CD12CC0E4EC2EFE2CA7019601E7
:10589000C301B2010E943FF36093000770930107B8
:1058A0008093020790930307C701B6010E9484F416
:1058B0006093FF0663300CF048C06F5F6093FE0694
:1058C000D09108021091FF06A50194016091090290
:1058D00070910A0280910B0290910C020E94B8EC28
:1058E000811135C0D1137DC02091E0063091E106D1
:1058F0004091E2065091E306609100077091010724
:1059000080910207909103070E941DED2091E4060B
:105910003091E5064091E6065091E7060E9440F37B
:10592000DF91CF911F910F91FF90EF90DF90CF907B
:10593000BF90AF909F908F907F906F905F904F90AF
:105940000895C12CD12C7601A1CF64E0B7CF80920D
:10595000090290920A02A0920B02B0920C022091CE
:105960001407309115074091160750911707C5018C
:10597000B4010E941DED4B015C010E94B5F46B0166
:105980007C0120E030E0A9010E94B8EC87FDE9C06D
:1059900020E030E040E450E4C701B6010E9466F523
:1059A00018162CF4C12CD12CB0E4EB2EFE2CA70140
:1059B0009601C501B4010E943FF36093FA0670930B
:1059C000FB068093FC069093FD06C701B6010E947A
:1059D00084F46093F90663300CF0C7C06F5F609386
:1059E000F806C091F906D11305C0809107028C1703
:1059F00009F46CC010930802C09307020C2E000C2F
:105A0000DD0B25E01203C0011124FC01EC0FFD1F8A
:105A1000EE0FFF1FEE0FFF1FE35AF24F208131817F
:105A2000428153812093F4063093F5064093F606A5
:105A30005093F7060091F806002E000C110BFC01A4
:105A4000E00FF11FEE0FFF1FEE0FFF1FE35AF24FA3
:105A500060817181828193810E943FF36093F0069F
:105A60007093F1068093F2069093F3062091FE0660
:105A700035E02303F0011124CE0FDF1FCC0FDD1F13
:105A8000CC0FDD1FC35AD24F288139814A815B81F7
:105A90002093EC063093ED064093EE065093EF060C
:105AA000E00FF11FEE0FFF1FEE0FFF1FE35AF24F43
:105AB00060817181828193810E943FF36093E80647
:105AC0007093E9068093EA069093EB068090FA06BD
:105AD0009090FB06A090FC06B090FD062091F00689
